S013000070726F6A65637420312E312E737265636A
S11300000C94A2000C94B4000C94B4000C94B400AE
S11300100C94B4000C94B4000C94B4000C94B4008C
S11300200C94B4000C94B4000C94B4000C94B4007C
S11300300C94B4000C94B4000C94B4000C94B4006C
S11300400C94B4000C94B4000C94B4000C94B4005C
S11300500C94B400F700F100C0000B01C000C00014
S1130060C0000701C000C000C000C000C000C00044
S1130070C000C000F900F300C000EF00C000C000E1
S1130080C0000901C000C000C000C000C000C00022
S1130090C000C000C000C000C000C000C000C0005C
S11300A0C000C000C000C000C000C000C000C0004C
S11300B0C000C000FB00F500C0000D01C000C0007E
S11300C0C0000501C000C000C000C000C000C000E6
S11300D0C000C000C000C000C000C000C000C0001C
S11300E0C000C000C000C000C000C000C000C0000C
S11300F0C000C000C000C000C000C000C000C000FC
S1130100C000C000C000C000C000C000C000C000EB
S1130110C000C000C000C000C000C000C000C000DB
S1130120C000C000C000C000C000C000C000C000CB
S1130130C000C000FD00FF00C0000101C000C000FD
S1130140C000030111241FBECFE5D8E0DEBFCDBF40
S113015020E0A0E6B0E001C01D92A036B207E1F7AE
S11301600E945F010C9476010C940000CF93DF93FE
S11301708FE08ABB8BBB20E030E04FE0C1E0D0E0F1
S11301804ABB4BBB83EC99E00197F1F700C0000038
S1130190B9016F5F7F4FCE0102C0880F991F2A9566
S11301A0E2F78BBBA3ECB9E01197F1F700C00000B4
S11301B0EBB389B3A7E8B3E11197F1F700C00000EE
S11301C09B0123703327E82B8E2F90E0FC0171975D
S11301D0E837F105A8F6E65DFF4F0C94700182E361
S11301E01DC084E31BC085E319C086E317C087E301
S11301F015C088E313C089E311C08FE20FC08AE2FF
S11302000DC08DE20BC08BE209C08DE307C086E40C
S113021005C080E303C081E301C083E3DF91CF9194
S11302200895CF93DF93C0E0D0E003C00E94B600EE
S113023089930E94B6008D33C9F78DE390E0DF9176
S1130240CF91089582BBAA9AAC9A83ED90E301976B
S1130250F1F700C00000AC981BBA089582BBAA98BD
S1130260AC9A83ED90E30197F1F700C00000AC98DD
S113027012BA089583ED90E30197F1F700C00000EE
S11302808FEF81BB84BB88E30E942E018EE00E9425
S11302902E0181E00E942E0180E80E942E01089523
S11302A0CF93DF93EC018881882331F021960E945B
S11302B0220189918111FBCFDF91CF9108950E9492
S11302C03A0183EC99E00197F1F700C0000081E165
S11302D091E00E9450010E94B6000E942201FFCFCB
S11302E0EE0FFF1F0590F491E02D0994F894FFCFD1
S9030000FC
